{
  "contractName": "Funder",
  "abi": [
    {
      "inputs": [],
      "name": "numOfFunder",
      "outputs": [
        {
          "internalType": "uint256",
          "name": "",
          "type": "uint256"
        }
      ],
      "stateMutability": "view",
      "type": "function"
    },
    {
      "stateMutability": "payable",
      "type": "receive"
    },
    {
      "inputs": [],
      "name": "transfer",
      "outputs": [],
      "stateMutability": "payable",
      "type": "function"
    },
    {
      "inputs": [
        {
          "internalType": "uint256",
          "name": "withdrawAmount",
          "type": "uint256"
        }
      ],
      "name": "withdraw",
      "outputs": [],
      "stateMutability": "nonpayable",
      "type": "function"
    }
  ],
  "bytecode": "0x608060405234801561000f575f80fd5b506102e58061001d5f395ff3fe608060405260043610610037575f3560e01c80632e1a7d4d146100425780635631d9621461006a5780638a4068dd146100945761003e565b3661003e57005b5f80fd5b34801561004d575f80fd5b50610068600480360381019061006391906101be565b61009e565b005b348015610075575f80fd5b5061007e610130565b60405161008b91906101f8565b60405180910390f35b61009c610135565b005b671bc16d674ec800008111156100e9576040517f08c379a00000000000000000000000000000000000000000000000000000000081526004016100e090610291565b60405180910390fd5b3373ffffffffffffffffffffffffffffffffffffffff166108fc8290811502906040515f60405180830381858888f1935050505015801561012c573d5f803e3d5ffd5b5050565b5f5481565b3360015f805481526020019081526020015f205f6101000a81548173ffffffffffffffffffffffffffffffffffffffff021916908373ffffffffffffffffffffffffffffffffffffffff160217905550565b5f80fd5b5f819050919050565b61019d8161018b565b81146101a7575f80fd5b50565b5f813590506101b881610194565b92915050565b5f602082840312156101d3576101d2610187565b5b5f6101e0848285016101aa565b91505092915050565b6101f28161018b565b82525050565b5f60208201905061020b5f8301846101e9565b92915050565b5f82825260208201905092915050565b7f43616e6e6f74207769746864726177206d6f7265207468616e203220657468655f8201527f7200000000000000000000000000000000000000000000000000000000000000602082015250565b5f61027b602183610211565b915061028682610221565b604082019050919050565b5f6020820190508181035f8301526102a88161026f565b905091905056fea2646970667358221220908cfa806399b8b0db216996c8e66d281042a50235f93b5640c5b136ee02006e64736f6c63430008150033",
  "immutableReferences": {},
  "source": "// SPDX-License-Identifier: GPL-3.0\r\n\r\npragma solidity >=0.8.2 <0.9.0;\r\n\r\ncontract Funder{\r\n    uint public numOfFunder;\r\n    mapping (uint=>address) private  funders;\r\n    \r\n    receive () external payable {\r\n        \r\n    }\r\n\r\n    function transfer() external payable {\r\n        funders[numOfFunder] = msg.sender;\r\n    }\r\n    function withdraw(uint withdrawAmount) external {\r\n        require(withdrawAmount <= 2000000000000000000,\"Cannot withdraw more than 2 ether\");\r\n        payable (msg.sender).transfer(withdrawAmount);\r\n    }\r\n}",
  "sourcePath": "D:\\Projects\\Funds\\contracts\\Funder.sol",
  "compiler": {
    "name": "solc",
    "version": "0.8.21+commit.d9974bed.Emscripten.clang"
  },
  "schemaVersion": "3.4.16",
  "updatedAt": "2024-11-01T04:15:53.605Z",
  "devdoc": {
    "kind": "dev",
    "methods": {},
    "version": 1
  },
  "userdoc": {
    "kind": "user",
    "methods": {},
    "version": 1
  }
}